{
  "contractName": "RockPaperScissor",
  "abi": [
    {
      "constant": false,
      "inputs": [
        {
          "name": "_encryptedOption",
          "type": "bytes32"
        },
        {
          "name": "_name",
          "type": "string"
        }
      ],
      "name": "play",
      "outputs": [],
      "payable": true,
      "stateMutability": "payable",
      "type": "function"
    },
    {
      "constant": false,
      "inputs": [],
      "name": "withdraw",
      "outputs": [],
      "payable": false,
      "stateMutability": "nonpayable",
      "type": "function"
    },
    {
      "constant": false,
      "inputs": [
        {
          "name": "_key",
          "type": "string"
        },
        {
          "name": "_option",
          "type": "int256"
        }
      ],
      "name": "reveal",
      "outputs": [
        {
          "name": "",
          "type": "bytes32"
        }
      ],
      "payable": false,
      "stateMutability": "nonpayable",
      "type": "function"
    },
    {
      "constant": true,
      "inputs": [],
      "name": "getPlayerStatus",
      "outputs": [
        {
          "name": "gameId",
          "type": "uint256"
        },
        {
          "name": "gameState",
          "type": "uint256"
        },
        {
          "name": "gameJackPot",
          "type": "uint256"
        }
      ],
      "payable": false,
      "stateMutability": "view",
      "type": "function"
    },
    {
      "inputs": [],
      "payable": false,
      "stateMutability": "nonpayable",
      "type": "constructor"
    },
    {
      "anonymous": false,
      "inputs": [
        {
          "indexed": false,
          "name": "gameId",
          "type": "uint256"
        }
      ],
      "name": "GameSessionCreated",
      "type": "event"
    },
    {
      "anonymous": false,
      "inputs": [
        {
          "indexed": false,
          "name": "gameId",
          "type": "uint256"
        }
      ],
      "name": "GameKeyReveal",
      "type": "event"
    },
    {
      "anonymous": false,
      "inputs": [
        {
          "indexed": false,
          "name": "winner",
          "type": "address"
        },
        {
          "indexed": false,
          "name": "gameJackPot",
          "type": "uint256"
        }
      ],
      "name": "GameSessionEnded",
      "type": "event"
    }
  ],
  "bytecode": "0x60606040526000600355341561001457600080fd5b611fd4806100236000396000f300606060405260043610610062576000357c0100000000000000000000000000000000000000000000000000000000900463ffffffff16806314582b77146100675780633ccfd60b146100c6578063993f2857146100db578063a7b84abc14610141575b600080fd5b6100c460048080356000191690602001909190803590602001908201803590602001908080601f01602080910402602001604051908101604052809392919081815260200183838082843782019150505050505091905050610178565b005b34156100d157600080fd5b6100d9610428565b005b34156100e657600080fd5b61013f600480803590602001908201803590602001908080601f016020809104026020016040519081016040528093929190818152602001838380828437820191505050505050919080359060200190919050506104f4565b005b341561014c57600080fd5b610154610b21565b60405180848152602001838152602001828152602001935050505060405180910390f35b600067016345785d8a00003414806101d65750670de0b6b3a7640000600260003373ffffffffffffffffffffffffffffffffffffffff1673ffffffffffffffffffffffffffffffffffffffff16815260200190815260200160002054115b80156101e657506001602060ff16115b15156101f157600080fd5b34600260003373ffffffffffffffffffffffffffffffffffffffff1673ffffffffffffffffffffffffffffffffffffffff1681526020019081526020016000206000828254019250508190555082600560003373ffffffffffffffffffffffffffffffffffffffff1673ffffffffffffffffffffffffffffffffffffffff1681526020019081526020016000206000018160001916905550600060048054905011156103a35760046001600480549050038154811015156102ae57fe5b906000526020600020900154905060046001600480549050038154811015156102d357fe5b906000526020600020900160009055806000803373ffffffffffffffffffffffffffffffffffffffff1673ffffffffffffffffffffffffffffffffffffffff1681526020019081526020016000208190555061032f8183610cd4565b60026001600083815260200190815260200160002060010181905550600360016000838152602001908152602001600020600101819055507fadacb10113c6b59f1ade3293637068565b81e4954b144dc476faee0a3956b3ff816040518082815260200191505060405180910390a1610423565b82600560003373ffffffffffffffffffffffffffffffffffffffff1673ffffffffffffffffffffffffffffffffffffffff16815260200190815260200160002060000181600019169055506103f782610dea565b6004805480600101828161040b9190611ce6565b91600052602060002090016000600354909190915055505b505050565b6000600260003373ffffffffffffffffffffffffffffffffffffffff1673ffffffffffffffffffffffffffffffffffffffff1681526020019081526020016000205490506000600260003373ffffffffffffffffffffffffffffffffffffffff1673ffffffffffffffffffffffffffffffffffffffff168152602001908152602001600020819055503373ffffffffffffffffffffffffffffffffffffffff166108fc829081150290604051600060405180830381858888f1935050505015156104f157600080fd5b50565b6104fc611d12565b6000600380610509610f97565b6001015414151561051957600080fd5b610521610f97565b6080604051908101604052908160008201805480602002602001604051908101604052809291908181526020016000905b8282101561067c57838290600052602060002090600202016040805190810160405290816000820160009054906101000a900473ffffffffffffffffffffffffffffffffffffffff1673ffffffffffffffffffffffffffffffffffffffff1673ffffffffffffffffffffffffffffffffffffffff168152602001600182018054600181600116156101000203166002900480601f0160208091040260200160405190810160405280929190818152602001828054600181600116156101000203166002900480156106645780601f1061063957610100808354040283529160200191610664565b820191906000526020600020905b81548152906001019060200180831161064757829003601f168201915b50505050508152505081526020019060010190610552565b5050505081526020016001820154815260200160028201548152602001600382015481525050925084600560003373ffffffffffffffffffffffffffffffffffffffff1673ffffffffffffffffffffffffffffffffffffffff16815260200190815260200160002060010190805190602001906106fa929190611d41565b5060009150600560003373ffffffffffffffffffffffffffffffffffffffff1673ffffffffffffffffffffffffffffffffffffffff168152602001908152602001600020600001546000191685856040518083805190602001908083835b60208310151561077d5780518252602082019150602081019050602083039250610758565b6001836020036101000a038019825116818451168082178552505050505050905001828152602001925050506040518091039020600019161415156107c6576107c533610fb8565b5b60006001026108ce60056000866000015160008151811015156107e557fe5b906020019060200201516000015173ffffffffffffffffffffffffffffffffffffffff1673ffffffffffffffffffffffffffffffffffffffff1681526020019081526020016000206001018054600181600116156101000203166002900480601f0160208091040260200160405190810160405280929190818152602001828054600181600116156101000203166002900480156108c45780601f10610899576101008083540402835291602001916108c4565b820191906000526020600020905b8154815290600101906020018083116108a757829003601f168201915b50505050506111ff565b60001916141580156109ea575060006001026109e360056000866000015160018151811015156108fa57fe5b906020019060200201516000015173ffffffffffffffffffffffffffffffffffffffff1673ffffffffffffffffffffffffffffffffffffffff1681526020019081526020016000206001018054600181600116156101000203166002900480601f0160208091040260200160405190810160405280929190818152602001828054600181600116156101000203166002900480156109d95780601f106109ae576101008083540402835291602001916109d9565b820191906000526020600020905b8154815290600101906020018083116109bc57829003601f168201915b50505050506111ff565b6000191614155b15610b0b57600191506109fc84611230565b600560003373ffffffffffffffffffffffffffffffffffffffff1673ffffffffffffffffffffffffffffffffffffffff16815260200190815260200160002060020160006101000a81548160ff02191690836002811115610a5957fe5b02179055503373ffffffffffffffffffffffffffffffffffffffff1683600001516000815181101515610a8857fe5b906020019060200201516000015173ffffffffffffffffffffffffffffffffffffffff161415610ae057610adb83600001516001815181101515610ac857fe5b906020019060200201516000015161126e565b610b0a565b610b0983600001516000815181101515610af657fe5b906020019060200201516000015161126e565b5b5b8115610b1a57610b19611689565b5b5050505050565b6000806000610b2e611d12565b610b36610f97565b6080604051908101604052908160008201805480602002602001604051908101604052809291908181526020016000905b82821015610c9157838290600052602060002090600202016040805190810160405290816000820160009054906101000a900473ffffffffffffffffffffffffffffffffffffffff1673ffffffffffffffffffffffffffffffffffffffff1673ffffffffffffffffffffffffffffffffffffffff168152602001600182018054600181600116156101000203166002900480601f016020809104026020016040519081016040528092919081815260200182805460018160011615610100020316600290048015610c795780601f10610c4e57610100808354040283529160200191610c79565b820191906000526020600020905b815481529060010190602001808311610c5c57829003601f168201915b50505050508152505081526020019060010190610b67565b5050505081526020016001820154815260200160028201548152602001600382015481525050905080606001519350806020015192508060400151915050909192565b816000803373ffffffffffffffffffffffffffffffffffffffff1673ffffffffffffffffffffffffffffffffffffffff16815260200190815260200160002081905550600160008381526020019081526020016000206000018054806001018281610d3f9190611dc1565b9160005260206000209060020201600060408051908101604052803373ffffffffffffffffffffffffffffffffffffffff16815260200185815250909190915060008201518160000160006101000a81548173ffffffffffffffffffffffffffffffffffffffff021916908373ffffffffffffffffffffffffffffffffffffffff1602179055506020820151816001019080519060200190610de2929190611df3565b505050505050565b60008080610df6610f97565b60010154141515610e0657600080fd5b600160006003600081548092919060010191905055815260200190815260200160002091506000600354111515610e3957fe5b816000018054806001018281610e4f9190611dc1565b9160005260206000209060020201600060408051908101604052803373ffffffffffffffffffffffffffffffffffffffff16815260200187815250909190915060008201518160000160006101000a81548173ffffffffffffffffffffffffffffffffffffffff021916908373ffffffffffffffffffffffffffffffffffffffff1602179055506020820151816001019080519060200190610ef2929190611df3565b505050506001826001018190555034826002018190555060035482600301819055506003546000803373ffffffffffffffffffffffffffffffffffffffff1673ffffffffffffffffffffffffffffffffffffffff168152602001908152602001600020819055507f79994fa3b100824df01a1ddc2f0f5f1699a66578fdf2c92b3d6efef0c509b01f6003546040518082815260200191505060405180910390a1505050565b600060016000610fa5611b27565b8152602001908152602001600020905090565b600080610fc3610f97565b9150816000016000815481101515610fd757fe5b906000526020600020906002020160000160009054906101000a900473ffffffffffffffffffffffffffffffffffffffff1673ffffffffffffffffffffffffffffffffffffffff168373ffffffffffffffffffffffffffffffffffffffff1614156110875781600001600181548110151561104e57fe5b906000526020600020906002020160000160009054906101000a900473ffffffffffffffffffffffffffffffffffffffff1690506110ce565b81600001600081548110151561109957fe5b906000526020600020906002020160000160009054906101000a900473ffffffffffffffffffffffffffffffffffffffff1690505b67016345785d8a000082600201819055508160020154600260008373ffffffffffffffffffffffffffffffffffffffff1673ffffffffffffffffffffffffffffffffffffffff168152602001908152602001600020600082825401925050819055508160020154600260008573ffffffffffffffffffffffffffffffffffffffff1673ffffffffffffffffffffffffffffffffffffffff16815260200190815260200160002060008282540392505081905550600482600101819055507f28c480849f407f1d3312a5a28c532e9d876ffdb890ffef8830a42d70aae23988818360020154604051808373ffffffffffffffffffffffffffffffffffffffff1673ffffffffffffffffffffffffffffffffffffffff1681526020018281526020019250505060405180910390a1505050565b6000611209611e73565b829050600081511415611222576000600102915061122a565b602083015191505b50919050565b600060018214156112445760009050611269565b60028214156112565760019050611269565b60038214156112685760029050611269565b5b919050565b611276611e87565b6000806000600560008673ffffffffffffffffffffffffffffffffffffffff1673ffffffffffffffffffffffffffffffffffffffff16815260200190815260200160002060606040519081016040529081600082015460001916600019168152602001600182018054600181600116156101000203166002900480601f0160208091040260200160405190810160405280929190818152602001828054600181600116156101000203166002900480156113715780601f1061134657610100808354040283529160200191611371565b820191906000526020600020905b81548152906001019060200180831161135457829003601f168201915b505050505081526020016002820160009054906101000a900460ff16600281111561139857fe5b60028111156113a357fe5b8152505093506001925060029150600390508360200151836040518083805190602001908083835b6020831015156113f057805182526020820191506020810190506020830392506113cb565b6001836020036101000a0380198251168184511680821785525050505050509050018281526020019250505060405180910390206000191684600001516000191614156114a0576000600560008773ffffffffffffffffffffffffffffffffffffffff1673ffffffffffffffffffffffffffffffffffffffff16815260200190815260200160002060020160006101000a81548160ff0219169083600281111561149657fe5b0217905550611682565b8360200151826040518083805190602001908083835b6020831015156114db57805182526020820191506020810190506020830392506114b6565b6001836020036101000a03801982511681845116808217855250505050505090500182815260200192505050604051809103902060001916846000015160001916141561158b576001600560008773ffffffffffffffffffffffffffffffffffffffff1673ffffffffffffffffffffffffffffffffffffffff16815260200190815260200160002060020160006101000a81548160ff0219169083600281111561158157fe5b0217905550611681565b8360200151816040518083805190602001908083835b6020831015156115c657805182526020820191506020810190506020830392506115a1565b6001836020036101000a038019825116818451168082178552505050505050905001828152602001925050506040518091039020600019168460000151600019161415611676576002600560008773ffffffffffffffffffffffffffffffffffffffff1673ffffffffffffffffffffffffffffffffffffffff16815260200190815260200160002060020160006101000a81548160ff0219169083600281111561166c57fe5b0217905550611680565b61167f85610fb8565b5b5b5b5050505050565b6000806000806000611699610f97565b94508460000160008154811015156116ad57fe5b906000526020600020906002020160000160009054906101000a900473ffffffffffffffffffffffffffffffffffffffff1693508460000160018154811015156116f357fe5b906000526020600020906002020160000160009054906101000a900473ffffffffffffffffffffffffffffffffffffffff16925067016345785d8a00008560020181905550600560008473ffffffffffffffffffffffffffffffffffffffff1673ffffffffffffffffffffffffffffffffffffffff16815260200190815260200160002060020160009054906101000a900460ff16600281111561179357fe5b600560008673ffffffffffffffffffffffffffffffffffffffff1673ffffffffffffffffffffffffffffffffffffffff16815260200190815260200160002060020160009054906101000a900460ff1660028111156117ee57fe5b14156118d1577f28c480849f407f1d3312a5a28c532e9d876ffdb890ffef8830a42d70aae23988846000604051808373ffffffffffffffffffffffffffffffffffffffff1673ffffffffffffffffffffffffffffffffffffffff1681526020018281526020019250505060405180910390a17f28c480849f407f1d3312a5a28c532e9d876ffdb890ffef8830a42d70aae23988836000604051808373ffffffffffffffffffffffffffffffffffffffff1673ffffffffffffffffffffffffffffffffffffffff1681526020018281526020019250505060405180910390a1611b16565b611979600560008673ffffffffffffffffffffffffffffffffffffffff1673ffffffffffffffffffffffffffffffffffffffff16815260200190815260200160002060020160009054906101000a900460ff16600560008673ffffffffffffffffffffffffffffffffffffffff1673ffffffffffffffffffffffffffffffffffffffff16815260200190815260200160002060020160009054906101000a900460ff16611b82565b600281111561198457fe5b600560008673ffffffffffffffffffffffffffffffffffffffff1673ffffffffffffffffffffffffffffffffffffffff16815260200190815260200160002060020160009054906101000a900460ff1660028111156119df57fe5b14156119f0578391508290506119f7565b8391508290505b8390508460020154600260008473ffffffffffffffffffffffffffffffffffffffff1673ffffffffffffffffffffffffffffffffffffffff168152602001908152602001600020600082825401925050819055508460020154600260008373ffffffffffffffffffffffffffffffffffffffff1673ffffffffffffffffffffffffffffffffffffffff16815260200190815260200160002060008282540392505081905550600485600101819055507f28c480849f407f1d3312a5a28c532e9d876ffdb890ffef8830a42d70aae23988828660020154604051808373ffffffffffffffffffffffffffffffffffffffff1673ffffffffffffffffffffffffffffffffffffffff1681526020018281526020019250505060405180910390a15b600085600201819055505050505050565b6000806000803373ffffffffffffffffffffffffffffffffffffffff1673ffffffffffffffffffffffffffffffffffffffff16815260200190815260200160002054905060008114151515611b7b57600080fd5b8091505090565b6000600280811115611b9057fe5b836002811115611b9c57fe5b1415611bf55760016002811115611baf57fe5b826002811115611bbb57fe5b1415611bc957829050611ce0565b60006002811115611bd657fe5b826002811115611be257fe5b1415611bf057819050611ce0565b611cd5565b60016002811115611c0257fe5b836002811115611c0e57fe5b1415611c665760006002811115611c2157fe5b826002811115611c2d57fe5b1415611c3b57829050611ce0565b600280811115611c4757fe5b826002811115611c5357fe5b1415611c6157819050611ce0565b611cd4565b60006002811115611c7357fe5b836002811115611c7f57fe5b1415611cd357600280811115611c9157fe5b826002811115611c9d57fe5b1415611cab57829050611ce0565b60016002811115611cb857fe5b826002811115611cc457fe5b1415611cd257819050611ce0565b5b5b5b60001515611cdf57fe5b5b92915050565b815481835581811511611d0d57818360005260206000209182019101611d0c9190611ebd565b5b505050565b608060405190810160405280611d26611ee2565b81526020016000815260200160008152602001600081525090565b828054600181600116156101000203166002900490600052602060002090601f016020900481019282601f10611d8257805160ff1916838001178555611db0565b82800160010185558215611db0579182015b82811115611daf578251825591602001919060010190611d94565b5b509050611dbd9190611ebd565b5090565b815481835581811511611dee57600202816002028360005260206000209182019101611ded9190611ef6565b5b505050565b828054600181600116156101000203166002900490600052602060002090601f016020900481019282601f10611e3457805160ff1916838001178555611e62565b82800160010185558215611e62579182015b82811115611e61578251825591602001919060010190611e46565b5b509050611e6f9190611ebd565b5090565b602060405190810160405280600081525090565b60606040519081016040528060008019168152602001611ea5611f4c565b815260200160006002811115611eb757fe5b81525090565b611edf91905b80821115611edb576000816000905550600101611ec3565b5090565b90565b602060405190810160405280600081525090565b611f4991905b80821115611f4557600080820160006101000a81549073ffffffffffffffffffffffffffffffffffffffff0219169055600182016000611f3c9190611f60565b50600201611efc565b5090565b90565b602060405190810160405280600081525090565b50805460018160011615610100020316600290046000825580601f10611f865750611fa5565b601f016020900490600052602060002090810190611fa49190611ebd565b5b505600a165627a7a723058203a541a647f916a989a9c64ec8a2a1efcf2e6d4ebe698c36258b7a62cdc8e88be0029",
  "source": "pragma solidity ^0.4.18;\n\nimport './TurnBasedGame.sol';\n\ncontract RockPaperScissor is TurnBasedGame {\n\n\tenum options { Rock, Paper, Scissor }\n\tuint[] private UnmatchGameId;\n    mapping(address => PlayerOptions) private OptionList;\n    struct PlayerOptions{\n        bytes32 encryptedOption;\n        string key;\n        options option;\n    }\n\n\tfunction RockPaperScissor() public{\n\t}\n\n\tfunction play(bytes32 _encryptedOption, string _name) public payable {\n\t    //check user only send 0.1 ETH or have at least 0.1ETH in the balance. Also check user send encryptedOption\n\t    require((msg.value==100000000000000000 || Balance[msg.sender] > 1000000000000000000) && (_encryptedOption.length>1));\n\t    Balance[msg.sender] += msg.value;\n\n\t    //record the encrypted option\n\t    OptionList[msg.sender].encryptedOption = _encryptedOption;\n\n\t\t//first check if there is an existing game that need opponenet\n\t\tif(UnmatchGameId.length>0){\n\t\t    //find out the gameId from list:UnmatchGameId. Copy the last unmatchgameId then delete it from UnmatchGameId.\n\t\t    uint id = UnmatchGameId[UnmatchGameId.length-1];\n\t\t    delete UnmatchGameId[UnmatchGameId.length-1];\n\n\t\t    //player 2 join game, max number of player joined\n\t\t    addressToGameId[msg.sender] = id;\n\t\t    addPlayer(id, _name);\n\t\t    gameIdToGame[id].gameState = 2;\n\t\t    //Both players already submit their option, move to gameState 3 to request key to reveal\n\t\t    gameIdToGame[id].gameState = 3;\n\t\t    //send event to notify user to call reveal()\n\t\t    GameKeyReveal(id);\n\t\t}\n\t\t//if no avaliable game to join, start a fresh game and add that to unmatchGame list\n\t\telse{\n\t\t    OptionList[msg.sender].encryptedOption = _encryptedOption;\n\t\t    startGame(_name);\n\t\t    UnmatchGameId.push(gamesPlayed);\n\t\t}\n\t}\n\n\tfunction reveal(string _key, int _option) public checkGameState (3) {\n\t    Game memory current_game = getGame();\n\t    \n        //record the key\n        OptionList[msg.sender].key = _key;\n        \n        bool UnlockedValid = false;\n        //check if they key is valid, it key is not valid, default lose\n        if(keccak256(_key,_option)!=OptionList[msg.sender].encryptedOption) _DefaultLose(msg.sender);\n\n        //check if both player reveal their key\n        if((stringToBytes32(OptionList[current_game.players[0].player].key) != 0x0)&&(stringToBytes32(OptionList[current_game.players[1].player].key) != 0x0)){\n            UnlockedValid = true;\n            OptionList[msg.sender].option = intToOption(_option);\n            //determine playerOne and playerTwo address\n            if(current_game.players[0].player == msg.sender)_DecryptOption(current_game.players[1].player);\n            else _DecryptOption(current_game.players[0].player);\n        }\n        // if both player option is unlock and valid, execute the game\n\t    if(UnlockedValid) ExeuteRockPaperScissor();\n       \n\t}\n\n\n    // execute the game after we decode both player option\n    function ExeuteRockPaperScissor() private {\n        Game storage game = getGame();\n\n\t    address player_one = game.players[0].player;\n\t    address player_two = game.players[1].player;\n\t    address winner;\n\t    address loser;\n\n\t    //we have hardcoded wager amount to be 0.1ETH\n\t    game.jackpot = 100000000000000000;\n\n\t    //if both player have the same option, no one wins\n\t    if(OptionList[player_one].option == OptionList[player_two].option ){\n\t        //brodcast draw result\n\t        GameSessionEnded(player_one,0);\n\t        GameSessionEnded(player_two,0);\n\t    }\n\t    else{\n\t        if(OptionList[ player_one].option == _DetermineWinner(OptionList[ player_one].option,OptionList[ player_two].option)){\n\t            winner = player_one;\n\t            loser = player_two;\n\t        }\n    \t    else{\n    \t        winner = player_one;\n\t            loser = player_two;\n    \t    }\n    \t        loser = player_one;\n            Balance[winner] += game.jackpot;\n            Balance[loser] -= game.jackpot;\n            game.gameState = 4;\n            GameSessionEnded(winner,game.jackpot);\n\t    }\n\t    game.jackpot = 0;\n    }\n\n    //This function would return winner option\n    function _DetermineWinner(options _playerOne, options _playerTwo) private pure returns (options) {\n        if(_playerOne == options.Scissor){\n            if(_playerTwo == options.Paper) return _playerOne;\n            if(_playerTwo == options.Rock) return _playerTwo;\n        }\n\t    else if(_playerOne == options.Paper){\n            if(_playerTwo == options.Rock) return _playerOne;\n            if(_playerTwo == options.Scissor) return _playerTwo;\n        }\n\t    else if(_playerOne == options.Rock){\n            if(_playerTwo == options.Scissor) return _playerOne;\n            if(_playerTwo == options.Paper) return _playerTwo;\n        }\n\t    assert(false); // SANITY CHECK: We should never get here.\n    }\n    \n    //This function is called when the hash value does not match, default lose for sending incorrect key\n    function _DefaultLose(address loser) private {\n        Game storage game = getGame();\n\t    address winner;\n\t    \n\t    if(loser == game.players[0].player)winner = game.players[1].player;\n\t    else winner = game.players[0].player;\n\n\t    //we have hardcoded wager amount to be 0.1ETH\n\t    game.jackpot = 100000000000000000;\n\t    Balance[winner] += game.jackpot;\n        Balance[loser] -= game.jackpot;\n        game.gameState = 4;\n        GameSessionEnded(winner,game.jackpot);\n    }\n    \n    //this function convert string to byte32 for hash comparison\n    function stringToBytes32(string memory source) private pure returns (bytes32 result) {\n        bytes memory tempEmptyStringTest = bytes(source);\n        if (tempEmptyStringTest.length == 0) {\n        return 0x0;\n        }\n\n        assembly {\n            result := mload(add(source, 32))\n        }\n    }\n    \n    //This function convert 1 2 3 to Rock Paper Scissor;\n    function intToOption(int _num) private pure returns(options) {\n        if(_num == 1) return options.Rock;\n        if(_num == 2) return options.Paper;\n        if(_num == 3) return options.Scissor;\n    }\n    \n    //This function Decrypt and record player option base on address given\n    function _DecryptOption(address player) private {\n        PlayerOptions memory playerOption = OptionList[player];\n        int Rock = 1;\n        int Paper = 2;\n        int Scissor = 3;\n        //string memory player_key = OptionList[player].key;\n        //bytes32 memory player_hash =  OptionList[player].encryptedOption;\n        if(playerOption.encryptedOption == keccak256(playerOption.key,Rock)) OptionList[player].option = options.Rock;\n        else if(playerOption.encryptedOption == keccak256(playerOption.key,Paper)) OptionList[player].option = options.Paper;\n        else if(playerOption.encryptedOption == keccak256(playerOption.key,Scissor)) OptionList[player].option = options.Scissor;\n        else _DefaultLose(player);\n    }\n}\n",
  "sourcePath": "/home/cashlion/Desktop/Solidity-Project/contracts/RockPaperScissor.sol",
  "compiler": {
    "name": "solc",
    "version": "0.4.18+commit.9cf6e910.Emscripten.clang"
  },
  "schemaVersion": "1.0.1",
  "updatedAt": "2018-01-13T22:34:58.570Z"
}