{
  "contractName": "RockPaperScissor",
  "abi": [
    {
      "constant": true,
      "inputs": [],
      "name": "player_one",
      "outputs": [
        {
          "name": "encryptedOption",
          "type": "bytes32"
        },
        {
          "name": "addr",
          "type": "address"
        }
      ],
      "payable": false,
      "stateMutability": "view",
      "type": "function"
    },
    {
      "constant": false,
      "inputs": [
        {
          "name": "_encryptedOption",
          "type": "bytes32"
        }
      ],
      "name": "reveal",
      "outputs": [],
      "payable": false,
      "stateMutability": "nonpayable",
      "type": "function"
    },
    {
      "constant": true,
      "inputs": [],
      "name": "player_two",
      "outputs": [
        {
          "name": "encryptedOption",
          "type": "bytes32"
        },
        {
          "name": "addr",
          "type": "address"
        }
      ],
      "payable": false,
      "stateMutability": "view",
      "type": "function"
    },
    {
      "constant": false,
      "inputs": [
        {
          "name": "_encryptedOption",
          "type": "bytes32"
        }
      ],
      "name": "play",
      "outputs": [],
      "payable": false,
      "stateMutability": "nonpayable",
      "type": "function"
    },
    {
      "inputs": [],
      "payable": false,
      "stateMutability": "nonpayable",
      "type": "constructor"
    }
  ],
  "bytecode": "0x6060604052341561000f57600080fd5b61002a61002f6401000000000261034f176401000000009004565b610148565b604080519081016040528060008019168152602001600073ffffffffffffffffffffffffffffffffffffffff16815250600080820151816000019060001916905560208201518160010160006101000a81548173ffffffffffffffffffffffffffffffffffffffff021916908373ffffffffffffffffffffffffffffffffffffffff160217905550905050604080519081016040528060008019168152602001600073ffffffffffffffffffffffffffffffffffffffff1681525060026000820151816000019060001916905560208201518160010160006101000a81548173ffffffffffffffffffffffffffffffffffffffff021916908373ffffffffffffffffffffffffffffffffffffffff160217905550905050565b610494806101576000396000f300606060405260043610610062576000357c0100000000000000000000000000000000000000000000000000000000900463ffffffff1680635000b11f14610067578063701fd0f1146100cb5780637efccf15146100f2578063c7a1865b14610156575b600080fd5b341561007257600080fd5b61007a61017d565b6040518083600019166000191681526020018273ffffffffffffffffffffffffffffffffffffffff1673ffffffffffffffffffffffffffffffffffffffff1681526020019250505060405180910390f35b34156100d657600080fd5b6100f06004808035600019169060200190919050506101af565b005b34156100fd57600080fd5b6101056101ba565b6040518083600019166000191681526020018273ffffffffffffffffffffffffffffffffffffffff1673ffffffffffffffffffffffffffffffffffffffff1681526020019250505060405180910390f35b341561016157600080fd5b61017b6004808035600019169060200190919050506101ec565b005b60008060000154908060010160009054906101000a900473ffffffffffffffffffffffffffffffffffffffff16905082565b6101b761034f565b50565b60028060000154908060010160009054906101000a900473ffffffffffffffffffffffffffffffffffffffff16905082565b600073ffffffffffffffffffffffffffffffffffffffff16600060010160009054906101000a900473ffffffffffffffffffffffffffffffffffffffff1673ffffffffffffffffffffffffffffffffffffffff1614801561029e5750600073ffffffffffffffffffffffffffffffffffffffff16600260010160009054906101000a900473ffffffffffffffffffffffffffffffffffffffff1673ffffffffffffffffffffffffffffffffffffffff16145b156102f95733600060010160006101000a81548173ffffffffffffffffffffffffffffffffffffffff021916908373ffffffffffffffffffffffffffffffffffffffff1602179055508060008001816000191690555061034c565b33600260010160006101000a81548173ffffffffffffffffffffffffffffffffffffffff021916908373ffffffffffffffffffffffffffffffffffffffff16021790555080600260000181600019169055505b50565b604080519081016040528060008019168152602001600073ffffffffffffffffffffffffffffffffffffffff16815250600080820151816000019060001916905560208201518160010160006101000a81548173ffffffffffffffffffffffffffffffffffffffff021916908373ffffffffffffffffffffffffffffffffffffffff160217905550905050604080519081016040528060008019168152602001600073ffffffffffffffffffffffffffffffffffffffff1681525060026000820151816000019060001916905560208201518160010160006101000a81548173ffffffffffffffffffffffffffffffffffffffff021916908373ffffffffffffffffffffffffffffffffffffffff1602179055509050505600a165627a7a723058202da4c987939742720cbc36d596049eb897bce6772ca27fc11dc0dea9a1b3d9300029",
  "source": "//I design this contract to be first come first play, player do not get to choose who he is playing against. This will probably work but let me know if you think there is better way to implment this\n\n\npragma solidity ^0.4.18;\ncontract RockPaperScissor {\n\n\t//player construct\n    struct PlayerStruct {\n        bytes32 encryptedOption;\n        address addr;\n    }\n\n    //delcare two player\n    PlayerStruct public player_one;\n    PlayerStruct public player_two;\n\n\n\tfunction RockPaperScissor() public{\n\t    reset();\n\t}\n\n\tfunction play(bytes32 _encryptedOption) public {\n\t    //Scenario #1 First player enter the game\n\t    if(player_one.addr == address(0) && player_two.addr == address(0)){\n\t        player_one.addr=msg.sender;\n\t        player_one.encryptedOption = _encryptedOption;\n\t    }\n\t    //Scenario #2 Second player join in, signal the player to reveal\n\t    else{\n\t        player_two.addr=msg.sender;\n\t        player_two.encryptedOption = _encryptedOption;\n\n\t        //Event broadcast player can reveal now\n\t    }\n\t}\n\n\tfunction reveal(bytes32 _encryptedOption) public {\n\n\t\t//first check if both player properly populated with address and encryptedOption\n\t\t/*require();*/\n\n\t    //decode the secret option\n\n\t    //compare the option and determin winner\n\n\t    //brodcast the result\n\t    /*event();*/\n\n\t    reset();\n\n\t}\n\n\t//We call this function to reset the state of the contract\n\tfunction reset() private{\n\t    player_one = PlayerStruct(\"\",address(0));\n\t    player_two = PlayerStruct(\"\",address(0));\n\t}\n}\n",
  "sourcePath": "/home/cashlion/Desktop/Solidity-Project/contracts/RockPaperScissor.sol",
  "compiler": {
    "name": "solc",
    "version": "0.4.18+commit.9cf6e910.Emscripten.clang"
  },
  "schemaVersion": "1.0.1",
  "updatedAt": "2018-01-11T19:02:03.567Z"
}